{
  "contractName": "UniversalBasicIncome",
  "abi": [
    {
      "constant": true,
      "inputs": [],
      "name": "bank",
      "outputs": [
        {
          "name": "",
          "type": "address"
        }
      ],
      "payable": false,
      "stateMutability": "view",
      "type": "function"
    },
    {
      "constant": true,
      "inputs": [],
      "name": "registry",
      "outputs": [
        {
          "name": "",
          "type": "address"
        }
      ],
      "payable": false,
      "stateMutability": "view",
      "type": "function"
    },
    {
      "constant": true,
      "inputs": [],
      "name": "INCOME_PER_SECOND",
      "outputs": [
        {
          "name": "",
          "type": "uint256"
        }
      ],
      "payable": false,
      "stateMutability": "view",
      "type": "function"
    },
    {
      "constant": true,
      "inputs": [
        {
          "name": "",
          "type": "address"
        }
      ],
      "name": "claimTimes",
      "outputs": [
        {
          "name": "",
          "type": "uint256"
        }
      ],
      "payable": false,
      "stateMutability": "view",
      "type": "function"
    },
    {
      "constant": true,
      "inputs": [],
      "name": "MONTHLY_INCOME",
      "outputs": [
        {
          "name": "",
          "type": "uint256"
        }
      ],
      "payable": false,
      "stateMutability": "view",
      "type": "function"
    },
    {
      "constant": true,
      "inputs": [],
      "name": "dai",
      "outputs": [
        {
          "name": "",
          "type": "address"
        }
      ],
      "payable": false,
      "stateMutability": "view",
      "type": "function"
    },
    {
      "inputs": [
        {
          "name": "_registry",
          "type": "address"
        },
        {
          "name": "_dai",
          "type": "address"
        },
        {
          "name": "_bank",
          "type": "address"
        }
      ],
      "payable": false,
      "stateMutability": "nonpayable",
      "type": "constructor"
    },
    {
      "constant": false,
      "inputs": [],
      "name": "claim",
      "outputs": [],
      "payable": false,
      "stateMutability": "nonpayable",
      "type": "function"
    },
    {
      "constant": false,
      "inputs": [
        {
          "name": "human",
          "type": "address"
        }
      ],
      "name": "claimableBalance",
      "outputs": [
        {
          "name": "",
          "type": "uint256"
        }
      ],
      "payable": false,
      "stateMutability": "nonpayable",
      "type": "function"
    }
  ],
  "bytecode": "0x608060405234801561001057600080fd5b50604051606080610a12833981018060405261002f9190810190610084565b600080546001600160a01b039485166001600160a01b0319918216179091556001805493851693821693909317909255600280549190931691161790556100f9565b600061007d82516100e2565b9392505050565b60008060006060848603121561009957600080fd5b60006100a58686610071565b93505060206100b686828701610071565b92505060406100c786828701610071565b9150509250925092565b60006100dc826100ed565b92915050565b60006100dc826100d1565b6001600160a01b031690565b61090a806101086000396000f3fe608060405234801561001057600080fd5b50600436106100885760003560e01c80637e42b2b11161005b5780637e42b2b1146100dd578063b89ea402146100e5578063ee8bb63c146100f8578063f4b9fa751461010057610088565b80634e71d92d1461008d57806360f3309b1461009757806376cdb03b146100c05780637b103999146100d5575b600080fd5b610095610108565b005b6100aa6100a5366004610670565b61039c565b6040516100b7919061088e565b60405180910390f35b6100c8610556565b6040516100b79190610850565b6100c8610565565b6100aa610574565b6100aa6100f3366004610670565b61057d565b6100aa61058f565b6100c861059b565b6000546040517ff72c436f0000000000000000000000000000000000000000000000000000000081526001600160a01b039091169063f72c436f90610151903390600401610827565b60206040518083038186803b15801561016957600080fd5b505afa15801561017d573d6000803e3d6000fd5b505050506040513d601f19601f820116820180604052506101a19190810190610696565b6101e0576040517f08c379a00000000000000000000000000000000000000000000000000000000081526004016101d79061087e565b60405180910390fd5b33600090815260036020526040812054429061020657670de0b6b3a7640000915061023b565b33600090815260036020526040902054610238906459d39e7f0f9061022c9084906105aa565b9063ffffffff6105f116565b91505b600254604080517f39f9446e00000000000000000000000000000000000000000000000000000000815290516000926001600160a01b0316916339f9446e91600480830192602092919082900301818787803b15801561029a57600080fd5b505af11580156102ae573d6000803e3d6000fd5b505050506040513d601f19601f820116820180604052506102d291908101906106b4565b905060008382106102e357836102e5565b815b6002546040517f5b730e690000000000000000000000000000000000000000000000000000000081529192506001600160a01b031690635b730e69906103319033908590600401610835565b602060405180830381600087803b15801561034b57600080fd5b505af115801561035f573d6000803e3d6000fd5b505050506040513d601f19601f8201168201806040525061038391908101906106b4565b5050336000908152600360205260409020919091555050565b600080546040517ff72c436f0000000000000000000000000000000000000000000000000000000081526001600160a01b039091169063f72c436f906103e6908590600401610819565b60206040518083038186803b1580156103fe57600080fd5b505afa158015610412573d6000803e3d6000fd5b505050506040513d601f19601f820116820180604052506104369190810190610696565b61044257506000610551565b6001600160a01b038216600090815260036020526040812054429061047157670de0b6b3a764000091506104a3565b6001600160a01b0384166000908152600360205260409020546104a0906459d39e7f0f9061022c9084906105aa565b91505b600254604080517f39f9446e00000000000000000000000000000000000000000000000000000000815290516000926001600160a01b0316916339f9446e91600480830192602092919082900301818787803b15801561050257600080fd5b505af1158015610516573d6000803e3d6000fd5b505050506040513d601f19601f8201168201806040525061053a91908101906106b4565b9050828110610549578261054b565b805b93505050505b919050565b6002546001600160a01b031681565b6000546001600160a01b031681565b6459d39e7f0f81565b60036020526000908152604090205481565b670de0b6b3a764000081565b6001546001600160a01b031681565b6000828211156105e6576040517f08c379a00000000000000000000000000000000000000000000000000000000081526004016101d79061085e565b508082035b92915050565b600082610600575060006105eb565b8282028284828161060d57fe5b0414610645576040517f08c379a00000000000000000000000000000000000000000000000000000000081526004016101d79061086e565b9392505050565b600061064582356108a5565b600061064582516108b9565b600061064582516108b6565b60006020828403121561068257600080fd5b600061068e848461064c565b949350505050565b6000602082840312156106a857600080fd5b600061068e8484610658565b6000602082840312156106c657600080fd5b600061068e8484610664565b6106db816108be565b82525050565b6106db816108a5565b6106db816108c5565b6000610700601e8361089c565b7f536166654d6174683a207375627472616374696f6e206f766572666c6f770000815260200192915050565b600061073960218361089c565b7f536166654d6174683a206d756c7469706c69636174696f6e206f766572666c6f81527f7700000000000000000000000000000000000000000000000000000000000000602082015260400192915050565b600061079860518361089c565b7f556e6976657273616c4261736963496e636f6d653a3a636c61696d3a20596f7581527f206d757374206265206f6e207468652048756d616e697479207265676973747260208201527f7920746f20636c61696d20696e636f6d65000000000000000000000000000000604082015260600192915050565b6106db816108b6565b602081016105eb82846106e1565b602081016105eb82846106d2565b6040810161084382856106d2565b6106456020830184610810565b602081016105eb82846106ea565b602080825281016105eb816106f3565b602080825281016105eb8161072c565b602080825281016105eb8161078b565b602081016105eb8284610810565b90815260200190565b60006001600160a01b0382166105eb565b90565b151590565b60006105eb825b60006105eb826108a556fea265627a7a723058204384478324240b3c97e1e45ae3fe79539f1460efad030438a14b45dcb0870f9d6c6578706572696d656e74616cf50037",
  "source": "pragma solidity 0.5.7;\npragma experimental ABIEncoderV2;\n\nimport { IERC20 } from \"openzeppelin-solidity/contracts/token/ERC20/IERC20.sol\";\nimport { SafeMath } from \"openzeppelin-solidity/contracts/math/SafeMath.sol\";\nimport { CompoundPool } from \"compound-pooling/contracts/CompoundPool.sol\";\n\nimport { IHumanityRegistry } from \"./interface/IHumanityRegistry.sol\";\n\n/**\n * @title UniversalBasicIncome\n * @dev Dai that can be claimed by humans on the Human Registry.\n */\ncontract UniversalBasicIncome {\n    using SafeMath for uint;\n\n    IHumanityRegistry public registry;\n    IERC20 public dai;\n    CompoundPool public bank;\n\n    uint public constant MONTHLY_INCOME = 1e18; // 1 Dai\n    uint public constant INCOME_PER_SECOND = MONTHLY_INCOME / 30 days;\n\n    mapping (address => uint) public claimTimes;\n\n    constructor(IHumanityRegistry _registry, IERC20 _dai, CompoundPool _bank) public {\n        registry = _registry;\n        dai = _dai;\n        bank = _bank;\n    }\n\n    function claim() public {\n        require(registry.isHuman(msg.sender), \"UniversalBasicIncome::claim: You must be on the Humanity registry to claim income\");\n\n        uint income;\n        uint time = block.timestamp;\n\n        // If claiming for the first time, send 1 month of UBI\n        if (claimTimes[msg.sender] == 0) {\n            income = MONTHLY_INCOME;\n        } else {\n            income = time.sub(claimTimes[msg.sender]).mul(INCOME_PER_SECOND);\n        }\n\n        uint balance = bank.excessDepositTokens();\n        // If not enough Dai reserves, send the remaining balance\n        uint actualIncome = balance < income ? balance : income;\n\n        bank.withdrawInterest(msg.sender, actualIncome);\n        claimTimes[msg.sender] = time;\n    }\n\n    function claimableBalance(address human) public returns (uint256) {\n        if(!registry.isHuman(human)){\n            return 0;\n        }\n        uint income;\n        uint time = block.timestamp;\n\n        // If claiming for the first time, send 1 month of UBI\n        if (claimTimes[human] == 0) {\n            income = MONTHLY_INCOME;\n        } else {\n            income = time.sub(claimTimes[human]).mul(INCOME_PER_SECOND);\n        }\n\n        uint balance = bank.excessDepositTokens();\n        // If not enough Dai reserves, use the remaining amount\n        return balance < income ? balance : income;\n\n    }\n\n}\n",
  "sourcePath": "/home/nate/workspace/humanity-ubi/contracts/UniversalBasicIncome.sol",
  "compiler": {
    "name": "solc",
    "version": "0.5.7+commit.6da8b019.Emscripten.clang"
  },
  "schemaVersion": "3.0.10",
  "updatedAt": "2019-08-03T22:44:11.417Z",
  "devdoc": {
    "details": "Dai that can be claimed by humans on the Human Registry.",
    "methods": {},
    "title": "UniversalBasicIncome"
  },
  "userdoc": {
    "methods": {}
  }
}