{
  "contractName": "CompoundPool",
  "abi": [
    {
      "constant": true,
      "inputs": [],
      "name": "name",
      "outputs": [
        {
          "name": "",
          "type": "string"
        }
      ],
      "payable": false,
      "stateMutability": "view",
      "type": "function"
    },
    {
      "constant": false,
      "inputs": [
        {
          "name": "spender",
          "type": "address"
        },
        {
          "name": "value",
          "type": "uint256"
        }
      ],
      "name": "approve",
      "outputs": [
        {
          "name": "",
          "type": "bool"
        }
      ],
      "payable": false,
      "stateMutability": "nonpayable",
      "type": "function"
    },
    {
      "constant": true,
      "inputs": [],
      "name": "totalSupply",
      "outputs": [
        {
          "name": "",
          "type": "uint256"
        }
      ],
      "payable": false,
      "stateMutability": "view",
      "type": "function"
    },
    {
      "constant": false,
      "inputs": [
        {
          "name": "sender",
          "type": "address"
        },
        {
          "name": "recipient",
          "type": "address"
        },
        {
          "name": "amount",
          "type": "uint256"
        }
      ],
      "name": "transferFrom",
      "outputs": [
        {
          "name": "",
          "type": "bool"
        }
      ],
      "payable": false,
      "stateMutability": "nonpayable",
      "type": "function"
    },
    {
      "constant": true,
      "inputs": [],
      "name": "decimals",
      "outputs": [
        {
          "name": "",
          "type": "uint8"
        }
      ],
      "payable": false,
      "stateMutability": "view",
      "type": "function"
    },
    {
      "constant": true,
      "inputs": [],
      "name": "beneficiary",
      "outputs": [
        {
          "name": "",
          "type": "address"
        }
      ],
      "payable": false,
      "stateMutability": "view",
      "type": "function"
    },
    {
      "constant": false,
      "inputs": [
        {
          "name": "spender",
          "type": "address"
        },
        {
          "name": "addedValue",
          "type": "uint256"
        }
      ],
      "name": "increaseAllowance",
      "outputs": [
        {
          "name": "",
          "type": "bool"
        }
      ],
      "payable": false,
      "stateMutability": "nonpayable",
      "type": "function"
    },
    {
      "constant": true,
      "inputs": [],
      "name": "governance",
      "outputs": [
        {
          "name": "",
          "type": "address"
        }
      ],
      "payable": false,
      "stateMutability": "view",
      "type": "function"
    },
    {
      "constant": true,
      "inputs": [
        {
          "name": "account",
          "type": "address"
        }
      ],
      "name": "balanceOf",
      "outputs": [
        {
          "name": "",
          "type": "uint256"
        }
      ],
      "payable": false,
      "stateMutability": "view",
      "type": "function"
    },
    {
      "constant": false,
      "inputs": [],
      "name": "renounceOwnership",
      "outputs": [],
      "payable": false,
      "stateMutability": "nonpayable",
      "type": "function"
    },
    {
      "constant": true,
      "inputs": [],
      "name": "owner",
      "outputs": [
        {
          "name": "",
          "type": "address"
        }
      ],
      "payable": false,
      "stateMutability": "view",
      "type": "function"
    },
    {
      "constant": true,
      "inputs": [],
      "name": "isOwner",
      "outputs": [
        {
          "name": "",
          "type": "bool"
        }
      ],
      "payable": false,
      "stateMutability": "view",
      "type": "function"
    },
    {
      "constant": true,
      "inputs": [],
      "name": "symbol",
      "outputs": [
        {
          "name": "",
          "type": "string"
        }
      ],
      "payable": false,
      "stateMutability": "view",
      "type": "function"
    },
    {
      "constant": true,
      "inputs": [],
      "name": "compoundToken",
      "outputs": [
        {
          "name": "",
          "type": "address"
        }
      ],
      "payable": false,
      "stateMutability": "view",
      "type": "function"
    },
    {
      "constant": false,
      "inputs": [
        {
          "name": "spender",
          "type": "address"
        },
        {
          "name": "subtractedValue",
          "type": "uint256"
        }
      ],
      "name": "decreaseAllowance",
      "outputs": [
        {
          "name": "",
          "type": "bool"
        }
      ],
      "payable": false,
      "stateMutability": "nonpayable",
      "type": "function"
    },
    {
      "constant": false,
      "inputs": [
        {
          "name": "recipient",
          "type": "address"
        },
        {
          "name": "amount",
          "type": "uint256"
        }
      ],
      "name": "transfer",
      "outputs": [
        {
          "name": "",
          "type": "bool"
        }
      ],
      "payable": false,
      "stateMutability": "nonpayable",
      "type": "function"
    },
    {
      "constant": true,
      "inputs": [],
      "name": "depositToken",
      "outputs": [
        {
          "name": "",
          "type": "address"
        }
      ],
      "payable": false,
      "stateMutability": "view",
      "type": "function"
    },
    {
      "constant": true,
      "inputs": [
        {
          "name": "owner",
          "type": "address"
        },
        {
          "name": "spender",
          "type": "address"
        }
      ],
      "name": "allowance",
      "outputs": [
        {
          "name": "",
          "type": "uint256"
        }
      ],
      "payable": false,
      "stateMutability": "view",
      "type": "function"
    },
    {
      "constant": false,
      "inputs": [
        {
          "name": "newOwner",
          "type": "address"
        }
      ],
      "name": "transferOwnership",
      "outputs": [],
      "payable": false,
      "stateMutability": "nonpayable",
      "type": "function"
    },
    {
      "inputs": [
        {
          "name": "_name",
          "type": "string"
        },
        {
          "name": "_symbol",
          "type": "string"
        },
        {
          "name": "_comptroller",
          "type": "address"
        },
        {
          "name": "_compoundToken",
          "type": "address"
        },
        {
          "name": "_depositToken",
          "type": "address"
        },
        {
          "name": "_beneficiary",
          "type": "address"
        }
      ],
      "payable": false,
      "stateMutability": "nonpayable",
      "type": "constructor"
    },
    {
      "anonymous": false,
      "inputs": [
        {
          "indexed": true,
          "name": "previousOwner",
          "type": "address"
        },
        {
          "indexed": true,
          "name": "newOwner",
          "type": "address"
        }
      ],
      "name": "OwnershipTransferred",
      "type": "event"
    },
    {
      "anonymous": false,
      "inputs": [
        {
          "indexed": true,
          "name": "from",
          "type": "address"
        },
        {
          "indexed": true,
          "name": "to",
          "type": "address"
        },
        {
          "indexed": false,
          "name": "value",
          "type": "uint256"
        }
      ],
      "name": "Transfer",
      "type": "event"
    },
    {
      "anonymous": false,
      "inputs": [
        {
          "indexed": true,
          "name": "owner",
          "type": "address"
        },
        {
          "indexed": true,
          "name": "spender",
          "type": "address"
        },
        {
          "indexed": false,
          "name": "value",
          "type": "uint256"
        }
      ],
      "name": "Approval",
      "type": "event"
    },
    {
      "constant": false,
      "inputs": [
        {
          "name": "_newBeneficiary",
          "type": "address"
        }
      ],
      "name": "updateBeneficiary",
      "outputs": [],
      "payable": false,
      "stateMutability": "nonpayable",
      "type": "function"
    },
    {
      "constant": false,
      "inputs": [
        {
          "name": "_to",
          "type": "address"
        },
        {
          "name": "_amount",
          "type": "uint256"
        }
      ],
      "name": "withdrawInterest",
      "outputs": [
        {
          "name": "",
          "type": "uint256"
        }
      ],
      "payable": false,
      "stateMutability": "nonpayable",
      "type": "function"
    },
    {
      "constant": false,
      "inputs": [
        {
          "name": "_amount",
          "type": "uint256"
        }
      ],
      "name": "deposit",
      "outputs": [],
      "payable": false,
      "stateMutability": "nonpayable",
      "type": "function"
    },
    {
      "constant": false,
      "inputs": [
        {
          "name": "_amount",
          "type": "uint256"
        }
      ],
      "name": "withdraw",
      "outputs": [],
      "payable": false,
      "stateMutability": "nonpayable",
      "type": "function"
    },
    {
      "constant": false,
      "inputs": [
        {
          "name": "_amount",
          "type": "uint256"
        }
      ],
      "name": "donate",
      "outputs": [],
      "payable": false,
      "stateMutability": "nonpayable",
      "type": "function"
    },
    {
      "constant": false,
      "inputs": [],
      "name": "excessDepositTokens",
      "outputs": [
        {
          "name": "",
          "type": "uint256"
        }
      ],
      "payable": false,
      "stateMutability": "nonpayable",
      "type": "function"
    }
  ],
  "bytecode": "0x60806040523480156200001157600080fd5b5060405162002aa138038062002aa18339810180604052620000379190810190620005f9565b85856012826003908051906020019062000053929190620003d5565b50815162000069906004906020850190620003d5565b506005805460ff191660ff9290921691909117610100600160a81b03191661010033810291909117918290556040516001600160a01b0391909204169250600091507f8be0079c531659141344cd1fd0a4f28419497f9722a3daafe3b4186f6b6457e0908290a3600680546001600160a01b038086166001600160a01b0319928316179092556007805485841690831617905560098054928416929091169190911790556200012060016200027a602090811b901c565b60408051600180825281830190925260609160208083019080388339505060065482519293506001600160a01b0316918391506000906200015d57fe5b6001600160a01b0392831660209182029290920101526040517fc299823800000000000000000000000000000000000000000000000000000000815260609187169063c299823890620001b59085906004016200080f565b600060405180830381600087803b158015620001d057600080fd5b505af1158015620001e5573d6000803e3d6000fd5b505050506040513d6000823e601f3d908101601f191682016040526200020f919081019062000598565b9050806000815181106200021f57fe5b60200260200101516000146200026c576040517f08c379a0000000000000000000000000000000000000000000000000000000008152600401620002639062000822565b60405180910390fd5b505050505050505062000914565b6007546006546040517fdd62ed3e00000000000000000000000000000000000000000000000000000000815283926001600160a01b039081169263dd62ed3e92620002cc9230921690600401620007d1565b60206040518083038186803b158015620002e557600080fd5b505afa158015620002fa573d6000803e3d6000fd5b505050506040513d601f19601f82011682018060405250620003209190810190620006bc565b1015620003d2576007546006546040517f095ea7b30000000000000000000000000000000000000000000000000000000081526001600160a01b039283169263095ea7b3926200037a9291169060001990600401620007f0565b602060405180830381600087803b1580156200039557600080fd5b505af1158015620003aa573d6000803e3d6000fd5b505050506040513d601f19601f82011682018060405250620003d09190810190620005d8565b505b50565b828054600181600116156101000203166002900490600052602060002090601f016020900481019282601f106200041857805160ff191683800117855562000448565b8280016001018555821562000448579182015b82811115620004485782518255916020019190600101906200042b565b50620004569291506200045a565b5090565b6200047791905b8082111562000456576000815560010162000461565b90565b6000620004888251620008bd565b9392505050565b600082601f830112620004a157600080fd5b8151620004b8620004b28262000861565b6200083a565b91508181835260208401935060208101905083856020840282011115620004de57600080fd5b60005b838110156200050e5781620004f788826200058a565b8452506020928301929190910190600101620004e1565b5050505092915050565b6000620004888251620008cf565b6000620004888251620008d4565b600082601f8301126200054657600080fd5b815162000557620004b28262000882565b915080825260208301602083018583830111156200057457600080fd5b62000581838284620008e1565b50505092915050565b600062000488825162000477565b600060208284031215620005ab57600080fd5b81516001600160401b03811115620005c257600080fd5b620005d0848285016200048f565b949350505050565b600060208284031215620005eb57600080fd5b6000620005d0848462000518565b60008060008060008060c087890312156200061357600080fd5b86516001600160401b038111156200062a57600080fd5b6200063889828a0162000534565b96505060208701516001600160401b038111156200065557600080fd5b6200066389828a0162000534565b95505060406200067689828a0162000526565b94505060606200068989828a0162000526565b93505060806200069c89828a0162000526565b92505060a0620006af89828a016200047a565b9150509295509295509295565b600060208284031215620006cf57600080fd5b6000620005d084846200058a565b6000620006eb8383620006f3565b505060200190565b620006fe81620008bd565b82525050565b60006200071182620008b0565b6200071d8185620008b4565b93506200072a83620008aa565b60005b828110156200075b5762000743868351620006dd565b95506200075082620008aa565b91506001016200072d565b5093949350505050565b600062000774602583620008b4565b7f4661696c656420746f20656e74657220636f6d706f756e6420746f6b656e206d81527f61726b6574000000000000000000000000000000000000000000000000000000602082015260400192915050565b620006fe8162000477565b60408101620007e18285620006f3565b620004886020830184620006f3565b60408101620008008285620006f3565b620004886020830184620007c6565b6020808252810162000488818462000704565b60208082528101620008348162000765565b92915050565b6040518181016001600160401b03811182821017156200085957600080fd5b604052919050565b60006001600160401b038211156200087857600080fd5b5060209081020190565b60006001600160401b038211156200089957600080fd5b506020601f91909101601f19160190565b60200190565b5190565b90815260200190565b60006001600160a01b03821662000834565b151590565b60006200083482620008bd565b60005b83811015620008fe578181015183820152602001620008e4565b838111156200090e576000848401525b50505050565b61217d80620009246000396000f3fe608060405234801561001057600080fd5b50600436106101a35760003560e01c806370a08231116100ee578063a457c2d711610097578063c89039c511610071578063c89039c514610317578063dd62ed3e1461031f578063f14faf6f14610332578063f2fde38b14610345576101a3565b8063a457c2d7146102de578063a9059cbb146102f1578063b6b55f2514610304576101a3565b80638f32d59b116100c85780638f32d59b146102b957806395d89b41146102c1578063a0e976b6146102c9576101a3565b806370a0823114610296578063715018a6146102a95780638da5cb5b146102b1576101a3565b8063313ce5671161015057806339f9446e1161012a57806339f9446e146102735780635aa6e6751461027b5780635b730e6914610283576101a3565b8063313ce5671461023657806338af3eed1461024b5780633950935114610260576101a3565b806318160ddd1161018157806318160ddd146101fb57806323b872dd146102105780632e1a7d4d14610223576101a3565b806306fdde03146101a8578063095ea7b3146101c65780630aaffd2a146101e6575b600080fd5b6101b0610358565b6040516101bd9190611f48565b60405180910390f35b6101d96101d43660046116a7565b6103ee565b6040516101bd9190611f2c565b6101f96101f43660046115fa565b610405565b005b61020361046f565b6040516101bd91906120a9565b6101d961021e36600461165a565b610475565b6101f96102313660046116f5565b6104cd565b61023e610651565b6040516101bd91906120b7565b61025361065a565b6040516101bd9190611eb2565b6101d961026e3660046116a7565b610669565b6102036106a5565b61025361080c565b6102036102913660046116a7565b61081b565b6102036102a43660046115fa565b6109db565b6101f96109f6565b610253610a7a565b6101d9610a8e565b6101b0610aa4565b6102d1610b05565b6040516101bd9190611f3a565b6101d96102ec3660046116a7565b610b14565b6101d96102ff3660046116a7565b610b50565b6101f96103123660046116f5565b610b5d565b6102d1610ce9565b61020361032d366004611620565b610cf8565b6101f96103403660046116f5565b610d23565b6101f96103533660046115fa565b610ea5565b60038054604080516020601f60026000196101006001881615020190951694909404938401819004810282018101909252828152606093909290918301828280156103e45780601f106103b9576101008083540402835291602001916103e4565b820191906000526020600020905b8154815290600101906020018083116103c757829003601f168201915b5050505050905090565b60006103fb338484610ed5565b5060015b92915050565b61040d610a8e565b61043557604051600160e51b62461bcd02815260040161042c90612029565b60405180910390fd5b600980547fffffffffffffffffffffffff0000000000000000000000000000000000000000166001600160a01b0392909216919091179055565b60025490565b6000610482848484610f8f565b6001600160a01b0384166000908152600160209081526040808320338085529252909120546104c29186916104bd908663ffffffff61109116565b610ed5565b5060015b9392505050565b6104d733826110bc565b6006546040517f852a12e30000000000000000000000000000000000000000000000000000000081526001600160a01b039091169063852a12e3906105209084906004016120a9565b602060405180830381600087803b15801561053a57600080fd5b505af115801561054e573d6000803e3d6000fd5b505050506040513d601f19601f820116820180604052506105729190810190611713565b1561059257604051600160e51b62461bcd02815260040161042c90611f69565b6007546040517fa9059cbb0000000000000000000000000000000000000000000000000000000081526001600160a01b039091169063a9059cbb906105dd9033908590600401611ee8565b602060405180830381600087803b1580156105f757600080fd5b505af115801561060b573d6000803e3d6000fd5b505050506040513d601f19601f8201168201806040525061062f91908101906116d7565b61064e57604051600160e51b62461bcd02815260040161042c90611fe9565b50565b60055460ff1690565b6009546001600160a01b031681565b3360008181526001602090815260408083206001600160a01b038716845290915281205490916103fb9185906104bd908663ffffffff61117c16565b60006108076106b261046f565b6006546040517f70a082310000000000000000000000000000000000000000000000000000000081526107fb91670de0b6b3a7640000916107ef916001600160a01b0316906370a082319061070b903090600401611eb2565b60206040518083038186803b15801561072357600080fd5b505afa158015610737573d6000803e3d6000fd5b505050506040513d601f19601f8201168201806040525061075b9190810190611713565b600660009054906101000a90046001600160a01b03166001600160a01b031663bd6d894d6040518163ffffffff1660e01b8152600401602060405180830381600087803b1580156107ab57600080fd5b505af11580156107bf573d6000803e3d6000fd5b505050506040513d601f19601f820116820180604052506107e39190810190611713565b9063ffffffff6111a416565b9063ffffffff6111e116565b9063ffffffff61109116565b905090565b6008546001600160a01b031681565b6009546000906001600160a01b0316331461084b57604051600160e51b62461bcd02815260040161042c90611f99565b6006546040517f852a12e30000000000000000000000000000000000000000000000000000000081526001600160a01b039091169063852a12e3906108949085906004016120a9565b602060405180830381600087803b1580156108ae57600080fd5b505af11580156108c2573d6000803e3d6000fd5b505050506040513d601f19601f820116820180604052506108e69190810190611713565b1561090657604051600160e51b62461bcd02815260040161042c90611fb9565b61090e61046f565b610916611219565b101561093757604051600160e51b62461bcd02815260040161042c90612079565b6007546040517fa9059cbb0000000000000000000000000000000000000000000000000000000081526001600160a01b039091169063a9059cbb906109829086908690600401611f1e565b602060405180830381600087803b15801561099c57600080fd5b505af11580156109b0573d6000803e3d6000fd5b505050506040513d601f19601f820116820180604052506109d491908101906116d7565b5092915050565b6001600160a01b031660009081526020819052604090205490565b6109fe610a8e565b610a1d57604051600160e51b62461bcd02815260040161042c90612029565b60055460405160009161010090046001600160a01b0316907f8be0079c531659141344cd1fd0a4f28419497f9722a3daafe3b4186f6b6457e0908390a36005805474ffffffffffffffffffffffffffffffffffffffff0019169055565b60055461010090046001600160a01b031690565b60055461010090046001600160a01b0316331490565b60048054604080516020601f60026000196101006001881615020190951694909404938401819004810282018101909252828152606093909290918301828280156103e45780601f106103b9576101008083540402835291602001916103e4565b6006546001600160a01b031681565b3360008181526001602090815260408083206001600160a01b038716845290915281205490916103fb9185906104bd908663ffffffff61109116565b60006103fb338484610f8f565b6007546040517f23b872dd0000000000000000000000000000000000000000000000000000000081526001600160a01b03909116906323b872dd90610baa90339030908690600401611ec0565b602060405180830381600087803b158015610bc457600080fd5b505af1158015610bd8573d6000803e3d6000fd5b505050506040513d601f19601f82011682018060405250610bfc91908101906116d7565b610c1b57604051600160e51b62461bcd02815260040161042c90612089565b610c2481611329565b6006546040517fa0712d680000000000000000000000000000000000000000000000000000000081526001600160a01b039091169063a0712d6890610c6d9084906004016120a9565b602060405180830381600087803b158015610c8757600080fd5b505af1158015610c9b573d6000803e3d6000fd5b505050506040513d601f19601f82011682018060405250610cbf9190810190611713565b15610cdf57604051600160e51b62461bcd02815260040161042c90612059565b61064e3382611476565b6007546001600160a01b031681565b6001600160a01b03918216600090815260016020908152604080832093909416825291909152205490565b6007546040517f23b872dd0000000000000000000000000000000000000000000000000000000081526001600160a01b03909116906323b872dd90610d7090339030908690600401611ec0565b602060405180830381600087803b158015610d8a57600080fd5b505af1158015610d9e573d6000803e3d6000fd5b505050506040513d601f19601f82011682018060405250610dc291908101906116d7565b610de157604051600160e51b62461bcd02815260040161042c90612009565b610dea81611329565b6006546040517fa0712d680000000000000000000000000000000000000000000000000000000081526001600160a01b039091169063a0712d6890610e339084906004016120a9565b602060405180830381600087803b158015610e4d57600080fd5b505af1158015610e61573d6000803e3d6000fd5b505050506040513d601f19601f82011682018060405250610e859190810190611713565b1561064e57604051600160e51b62461bcd02815260040161042c90611ff9565b610ead610a8e565b610ecc57604051600160e51b62461bcd02815260040161042c90612029565b61064e8161152d565b6001600160a01b038316610efe57604051600160e51b62461bcd02815260040161042c90612069565b6001600160a01b038216610f2757604051600160e51b62461bcd02815260040161042c90611f89565b6001600160a01b0380841660008181526001602090815260408083209487168084529490915290819020849055517f8c5be1e5ebec7d5bd14f71427d1e84f3dd0314c0f7b2291e5b200ac8c7c3b92590610f829085906120a9565b60405180910390a3505050565b6001600160a01b038316610fb857604051600160e51b62461bcd02815260040161042c90612049565b6001600160a01b038216610fe157604051600160e51b62461bcd02815260040161042c90611f59565b6001600160a01b03831660009081526020819052604090205461100a908263ffffffff61109116565b6001600160a01b03808516600090815260208190526040808220939093559084168152205461103f908263ffffffff61117c16565b6001600160a01b0380841660008181526020819052604090819020939093559151908516907fddf252ad1be2c89b69c2b068fc378daa952ba7f163c4a11628f55a4df523b3ef90610f829085906120a9565b6000828211156110b657604051600160e51b62461bcd02815260040161042c90611fc9565b50900390565b6001600160a01b0382166110e557604051600160e51b62461bcd02815260040161042c90612039565b6002546110f8908263ffffffff61109116565b6002556001600160a01b038216600090815260208190526040902054611124908263ffffffff61109116565b6001600160a01b0383166000818152602081905260408082209390935591517fddf252ad1be2c89b69c2b068fc378daa952ba7f163c4a11628f55a4df523b3ef906111709085906120a9565b60405180910390a35050565b6000828201838110156104c657604051600160e51b62461bcd02815260040161042c90611fa9565b6000826111b3575060006103ff565b828202828482816111c057fe5b04146104c657604051600160e51b62461bcd02815260040161042c90612019565b600080821161120557604051600160e51b62461bcd02815260040161042c90611fd9565b600082848161121057fe5b04949350505050565b6006546040517f70a0823100000000000000000000000000000000000000000000000000000000815260009161080791670de0b6b3a7640000916107ef916001600160a01b03909116906370a0823190611277903090600401611eb2565b60206040518083038186803b15801561128f57600080fd5b505afa1580156112a3573d6000803e3d6000fd5b505050506040513d601f19601f820116820180604052506112c79190810190611713565b600660009054906101000a90046001600160a01b03166001600160a01b031663182df0f56040518163ffffffff1660e01b815260040160206040518083038186803b15801561131557600080fd5b505afa1580156107bf573d6000803e3d6000fd5b6007546006546040517fdd62ed3e00000000000000000000000000000000000000000000000000000000815283926001600160a01b039081169263dd62ed3e926113799230921690600401611f03565b60206040518083038186803b15801561139157600080fd5b505afa1580156113a5573d6000803e3d6000fd5b505050506040513d601f19601f820116820180604052506113c99190810190611713565b101561064e576007546006546040517f095ea7b30000000000000000000000000000000000000000000000000000000081526001600160a01b039283169263095ea7b3926114209291169060001990600401611f1e565b602060405180830381600087803b15801561143a57600080fd5b505af115801561144e573d6000803e3d6000fd5b505050506040513d601f19601f8201168201806040525061147291908101906116d7565b5050565b6001600160a01b03821661149f57604051600160e51b62461bcd02815260040161042c90612099565b6002546114b2908263ffffffff61117c16565b6002556001600160a01b0382166000908152602081905260409020546114de908263ffffffff61117c16565b6001600160a01b0383166000818152602081905260408082209390935591519091907fddf252ad1be2c89b69c2b068fc378daa952ba7f163c4a11628f55a4df523b3ef906111709085906120a9565b6001600160a01b03811661155657604051600160e51b62461bcd02815260040161042c90611f79565b6005546040516001600160a01b0380841692610100900416907f8be0079c531659141344cd1fd0a4f28419497f9722a3daafe3b4186f6b6457e090600090a3600580546001600160a01b039092166101000274ffffffffffffffffffffffffffffffffffffffff0019909216919091179055565b60006104c682356120d2565b60006104c682516120dd565b60006104c682356120ee565b60006104c682516120ee565b60006020828403121561160c57600080fd5b600061161884846115ca565b949350505050565b6000806040838503121561163357600080fd5b600061163f85856115ca565b9250506020611650858286016115ca565b9150509250929050565b60008060006060848603121561166f57600080fd5b600061167b86866115ca565b935050602061168c868287016115ca565b925050604061169d868287016115e2565b9150509250925092565b600080604083850312156116ba57600080fd5b60006116c685856115ca565b9250506020611650858286016115e2565b6000602082840312156116e957600080fd5b600061161884846115d6565b60006020828403121561170757600080fd5b600061161884846115e2565b60006020828403121561172557600080fd5b600061161884846115ee565b61173a816120f7565b82525050565b61173a816120d2565b61173a816120dd565b61173a816120fe565b6000611766826120c5565b61177081856120c9565b9350611780818560208601612109565b61178981612139565b9093019392505050565b60006117a06023836120c9565b7f45524332303a207472616e7366657220746f20746865207a65726f206164647281527f6573730000000000000000000000000000000000000000000000000000000000602082015260400192915050565b60006117ff602e836120c9565b7f436f6d706f756e64506f6f6c3a3a77697468647261773a20436f6d706f756e6481527f2072656465656d206661696c6564000000000000000000000000000000000000602082015260400192915050565b600061185e6026836120c9565b7f4f776e61626c653a206e6577206f776e657220697320746865207a65726f206181527f6464726573730000000000000000000000000000000000000000000000000000602082015260400192915050565b60006118bd6022836120c9565b7f45524332303a20617070726f766520746f20746865207a65726f20616464726581527f7373000000000000000000000000000000000000000000000000000000000000602082015260400192915050565b600061191c603b836120c9565b7f436f6d706f756e64506f6f6c3a3a6f6e6c7942656e65666963696172793a204f81527f6e6c792063616c6c61626c652062792062656e65666963696172790000000000602082015260400192915050565b600061197b601b836120c9565b7f536166654d6174683a206164646974696f6e206f766572666c6f770000000000815260200192915050565b60006119b46036836120c9565b7f436f6d706f756e64506f6f6c3a3a7769746864726177496e7465726573743a2081527f436f6d706f756e642072656465656d206661696c656400000000000000000000602082015260400192915050565b6000611a13601e836120c9565b7f536166654d6174683a207375627472616374696f6e206f766572666c6f770000815260200192915050565b6000611a4c601a836120c9565b7f536166654d6174683a206469766973696f6e206279207a65726f000000000000815260200192915050565b6000611a856027836120c9565b7f436f6d706f756e64506f6f6c3a3a77697468647261773a205472616e7366657281527f206661696c656400000000000000000000000000000000000000000000000000602082015260400192915050565b6000611ae4602a836120c9565b7f436f6d706f756e64506f6f6c3a3a646f6e6174653a20436f6d706f756e64206d81527f696e74206661696c656400000000000000000000000000000000000000000000602082015260400192915050565b6000611b436025836120c9565b7f436f6d706f756e64506f6f6c3a3a646f6e6174653a205472616e73666572206681527f61696c6564000000000000000000000000000000000000000000000000000000602082015260400192915050565b6000611ba26021836120c9565b7f536166654d6174683a206d756c7469706c69636174696f6e206f766572666c6f81527f7700000000000000000000000000000000000000000000000000000000000000602082015260400192915050565b6000611c016020836120c9565b7f4f776e61626c653a2063616c6c6572206973206e6f7420746865206f776e6572815260200192915050565b6000611c3a6021836120c9565b7f45524332303a206275726e2066726f6d20746865207a65726f2061646472657381527f7300000000000000000000000000000000000000000000000000000000000000602082015260400192915050565b6000611c996025836120c9565b7f45524332303a207472616e736665722066726f6d20746865207a65726f20616481527f6472657373000000000000000000000000000000000000000000000000000000602082015260400192915050565b6000611cf8602b836120c9565b7f436f6d706f756e64506f6f6c3a3a6465706f7369743a20436f6d706f756e642081527f6d696e74206661696c6564000000000000000000000000000000000000000000602082015260400192915050565b6000611d576024836120c9565b7f45524332303a20617070726f76652066726f6d20746865207a65726f2061646481527f7265737300000000000000000000000000000000000000000000000000000000602082015260400192915050565b6000611db6603f836120c9565b7f436f6d706f756e64506f6f6c3a3a7769746864726177496e7465726573743a2081527f4e6f7420656e6f75676820657863657373206465706f73697420746f6b656e00602082015260400192915050565b6000611e156026836120c9565b7f436f6d706f756e64506f6f6c3a3a6465706f7369743a205472616e736665722081527f6661696c65640000000000000000000000000000000000000000000000000000602082015260400192915050565b6000611e74601f836120c9565b7f45524332303a206d696e7420746f20746865207a65726f206164647265737300815260200192915050565b61173a816120ee565b61173a816120f1565b602081016103ff8284611740565b60608101611ece8286611731565b611edb6020830185611740565b6116186040830184611ea0565b60408101611ef68285611731565b6104c66020830184611ea0565b60408101611f118285611740565b6104c66020830184611740565b60408101611ef68285611740565b602081016103ff8284611749565b602081016103ff8284611752565b602080825281016104c6818461175b565b602080825281016103ff81611793565b602080825281016103ff816117f2565b602080825281016103ff81611851565b602080825281016103ff816118b0565b602080825281016103ff8161190f565b602080825281016103ff8161196e565b602080825281016103ff816119a7565b602080825281016103ff81611a06565b602080825281016103ff81611a3f565b602080825281016103ff81611a78565b602080825281016103ff81611ad7565b602080825281016103ff81611b36565b602080825281016103ff81611b95565b602080825281016103ff81611bf4565b602080825281016103ff81611c2d565b602080825281016103ff81611c8c565b602080825281016103ff81611ceb565b602080825281016103ff81611d4a565b602080825281016103ff81611da9565b602080825281016103ff81611e08565b602080825281016103ff81611e67565b602081016103ff8284611ea0565b602081016103ff8284611ea9565b5190565b90815260200190565b60006103ff826120e2565b151590565b6001600160a01b031690565b90565b60ff1690565b60006103ff825b60006103ff826120d2565b60005b8381101561212457818101518382015260200161210c565b83811115612133576000848401525b50505050565b601f01601f19169056fea265627a7a72305820ca42dd174f093c809029b50ef07586a3247aa1fd8ce92e353df55a70ad2e62096c6578706572696d656e74616cf50037",
  "source": "pragma solidity 0.5.7;\npragma experimental ABIEncoderV2;\n\nimport { IERC20 } from \"openzeppelin-solidity/contracts/token/ERC20/IERC20.sol\";\nimport { ERC20Detailed } from \"openzeppelin-solidity/contracts/token/ERC20/ERC20Detailed.sol\";\nimport { ERC20 } from \"openzeppelin-solidity/contracts/token/ERC20/ERC20.sol\";\nimport { SafeMath } from \"openzeppelin-solidity/contracts/math/SafeMath.sol\";\nimport { Ownable } from \"openzeppelin-solidity/contracts/ownership/Ownable.sol\";\n\nimport { ICompoundERC20 } from \"./interface/ICompoundERC20.sol\";\nimport { IComptroller } from \"./interface/IComptroller.sol\";\n\n/**\n * @title CompoundPool\n * @author Nate Welch <github.com/flyging>\n * @notice Based on Zefram Lou's implementation https://github.com/ZeframLou/pooled-cdai\n * @dev A bank that will pool compound tokens and allows the beneficiary to withdraw\n */\ncontract CompoundPool is ERC20, ERC20Detailed, Ownable {\n    using SafeMath for uint;\n\n    uint256 internal constant PRECISION = 10 ** 18;\n\n    ICompoundERC20 public compoundToken;\n    IERC20 public depositToken;\n    address public governance;\n    address public beneficiary;\n\n    /**\n     * @notice Constructor\n     * @param _name name of the pool share token\n     * @param _symbol symbol of the pool share token\n     * @param _comptroller the Compound Comptroller contract used to enter the compoundToken's market\n     * @param _compoundToken the Compound Token contract (e.g. cDAI)\n     * @param _depositToken the Deposit Token contract (e.g. DAI)\n     * @param _beneficiary the address that can withdraw excess deposit tokens (interest/donations)\n     */\n    constructor(\n        string memory _name,\n        string memory _symbol,\n        IComptroller _comptroller,\n        ICompoundERC20 _compoundToken,\n        IERC20 _depositToken,\n        address _beneficiary\n    )\n        ERC20Detailed(_name, _symbol, 18)\n        public\n    {\n        compoundToken = _compoundToken;\n        depositToken = _depositToken;\n        beneficiary = _beneficiary;\n\n        _approveDepositToken(1);\n\n        // Enter compound token market\n        address[] memory markets = new address[](1);\n        markets[0] = address(compoundToken);\n        uint[] memory errors = _comptroller.enterMarkets(markets);\n        require(errors[0] == 0, \"Failed to enter compound token market\");\n    }\n\n    /**\n     * @dev used to restrict access of functions to the current beneficiary\n     */\n    modifier onlyBeneficiary() {\n        require(msg.sender == beneficiary, \"CompoundPool::onlyBeneficiary: Only callable by beneficiary\");\n        _;\n    }\n\n    /**\n     * @notice Called by the `owner` to set a new beneficiary\n     * @dev This function will fail if called by a non-owner address\n     * @param _newBeneficiary The address that will become the new beneficiary\n     */\n    function updateBeneficiary(address _newBeneficiary) public onlyOwner {\n        beneficiary = _newBeneficiary;\n    }\n\n    /**\n     * @notice The beneficiary calls this function to withdraw excess deposit tokens\n     * @dev This function will fail if called by a non-beneficiary or if _amount is higher than the excess deposit tokens\n     * @param _to The address that the deposit tokens will be sent to\n     * @param _amount The amount of deposit tokens to send to the `_to` address\n     */\n    function withdrawInterest(address _to, uint256 _amount) public onlyBeneficiary returns (uint256) {\n        require(compoundToken.redeemUnderlying(_amount) == 0, \"CompoundPool::withdrawInterest: Compound redeem failed\");\n\n        //Doing this *after* `redeemUnderlying` so I don't have compoundToken do `exchangeRateCurrent` twice, it's not cheap\n        require(depositTokenStoredBalance() >= totalSupply(), \"CompoundPool::withdrawInterest: Not enough excess deposit token\");\n\n        depositToken.transfer(_to, _amount);\n    }\n\n    /**\n     * @notice Called by someone wishing to deposit to the bank. This amount, plus previous user's balance, will always be withdrawable\n     * @dev Allowance for CompoundPool to transferFrom the msg.sender's balance must be set on the deposit token\n     * @param _amount The amount of deposit tokens to deposit\n     */\n    function deposit(uint256 _amount) public {\n        require(depositToken.transferFrom(msg.sender, address(this), _amount), \"CompoundPool::deposit: Transfer failed\");\n\n        _approveDepositToken(_amount);\n\n        require(compoundToken.mint(_amount) == 0, \"CompoundPool::deposit: Compound mint failed\");\n    \n        _mint(msg.sender, _amount);\n    }\n\n    /**\n     * @notice Called by someone wishing to withdraw from the bank\n     * @dev This will fail if msg.sender doesn't have at least _amount pool share tokens\n     * @param _amount The amount of deposit tokens to withdraw\n     */\n    function withdraw(uint256 _amount) public {\n        _burn(msg.sender, _amount);\n\n        require(compoundToken.redeemUnderlying(_amount) == 0, \"CompoundPool::withdraw: Compound redeem failed\");\n\n        require(depositToken.transfer(msg.sender, _amount), \"CompoundPool::withdraw: Transfer failed\");\n    }\n\n    /**\n     * @notice Called by someone wishing to donate to the bank. This amount will *not* be added to users balance, and will be usable by the beneficiary.\n     * @dev Allowance for CompoundPool to transferFrom the msg.sender's balance must be set on the deposit token\n     * @param _amount The amount of deposit tokens to donate\n     */\n    function donate(uint256 _amount) public {\n        require(depositToken.transferFrom(msg.sender, address(this), _amount), \"CompoundPool::donate: Transfer failed\");\n\n        _approveDepositToken(_amount);\n\n        require(compoundToken.mint(_amount) == 0, \"CompoundPool::donate: Compound mint failed\");\n    }\n\n    /**\n     * @notice Returns the amount of deposit tokens that are usable by the beneficiary. Basically, interestEarned+donations\n     * @dev Allowance for CompoundPool to transferFrom the msg.sender's balance must be set on the deposit token\n     */\n    function excessDepositTokens() public returns (uint256) {\n        return compoundToken.exchangeRateCurrent().mul(compoundToken.balanceOf(address(this))).div(PRECISION).sub(totalSupply());\n    }\n\n    function depositTokenStoredBalance() internal returns (uint256) {\n        return compoundToken.exchangeRateStored().mul(compoundToken.balanceOf(address(this))).div(PRECISION);\n    }\n\n    function _approveDepositToken(uint256 _minimum) internal {\n        if(depositToken.allowance(address(this), address(compoundToken)) < _minimum){\n            depositToken.approve(address(compoundToken),uint256(0xffffffffffffffffffffffffffffffffffffffffffffffffffffffffffffffff));\n        }\n    }\n}\n",
  "sourcePath": "compound-pooling/contracts/CompoundPool.sol",
  "compiler": {
    "name": "solc",
    "version": "0.5.7+commit.6da8b019.Emscripten.clang"
  },
  "schemaVersion": "3.0.10",
  "updatedAt": "2019-08-03T22:44:11.401Z",
  "devdoc": {
    "author": "Nate Welch <github.com/flyging>",
    "details": "A bank that will pool compound tokens and allows the beneficiary to withdraw",
    "methods": {
      "allowance(address,address)": {
        "details": "See `IERC20.allowance`."
      },
      "approve(address,uint256)": {
        "details": "See `IERC20.approve`.     * Requirements:     * - `spender` cannot be the zero address."
      },
      "balanceOf(address)": {
        "details": "See `IERC20.balanceOf`."
      },
      "constructor": {
        "params": {
          "_beneficiary": "the address that can withdraw excess deposit tokens (interest/donations)",
          "_compoundToken": "the Compound Token contract (e.g. cDAI)",
          "_comptroller": "the Compound Comptroller contract used to enter the compoundToken's market",
          "_depositToken": "the Deposit Token contract (e.g. DAI)",
          "_name": "name of the pool share token",
          "_symbol": "symbol of the pool share token"
        }
      },
      "decimals()": {
        "details": "Returns the number of decimals used to get its user representation. For example, if `decimals` equals `2`, a balance of `505` tokens should be displayed to a user as `5,05` (`505 / 10 ** 2`).     * Tokens usually opt for a value of 18, imitating the relationship between Ether and Wei.     * > Note that this information is only used for _display_ purposes: it in no way affects any of the arithmetic of the contract, including `IERC20.balanceOf` and `IERC20.transfer`."
      },
      "decreaseAllowance(address,uint256)": {
        "details": "Atomically decreases the allowance granted to `spender` by the caller.     * This is an alternative to `approve` that can be used as a mitigation for problems described in `IERC20.approve`.     * Emits an `Approval` event indicating the updated allowance.     * Requirements:     * - `spender` cannot be the zero address. - `spender` must have allowance for the caller of at least `subtractedValue`."
      },
      "deposit(uint256)": {
        "details": "Allowance for CompoundPool to transferFrom the msg.sender's balance must be set on the deposit token",
        "params": {
          "_amount": "The amount of deposit tokens to deposit"
        }
      },
      "donate(uint256)": {
        "details": "Allowance for CompoundPool to transferFrom the msg.sender's balance must be set on the deposit token",
        "params": {
          "_amount": "The amount of deposit tokens to donate"
        }
      },
      "excessDepositTokens()": {
        "details": "Allowance for CompoundPool to transferFrom the msg.sender's balance must be set on the deposit token"
      },
      "increaseAllowance(address,uint256)": {
        "details": "Atomically increases the allowance granted to `spender` by the caller.     * This is an alternative to `approve` that can be used as a mitigation for problems described in `IERC20.approve`.     * Emits an `Approval` event indicating the updated allowance.     * Requirements:     * - `spender` cannot be the zero address."
      },
      "isOwner()": {
        "details": "Returns true if the caller is the current owner."
      },
      "name()": {
        "details": "Returns the name of the token."
      },
      "owner()": {
        "details": "Returns the address of the current owner."
      },
      "renounceOwnership()": {
        "details": "Leaves the contract without owner. It will not be possible to call `onlyOwner` functions anymore. Can only be called by the current owner.     * > Note: Renouncing ownership will leave the contract without an owner, thereby removing any functionality that is only available to the owner."
      },
      "symbol()": {
        "details": "Returns the symbol of the token, usually a shorter version of the name."
      },
      "totalSupply()": {
        "details": "See `IERC20.totalSupply`."
      },
      "transfer(address,uint256)": {
        "details": "See `IERC20.transfer`.     * Requirements:     * - `recipient` cannot be the zero address. - the caller must have a balance of at least `amount`."
      },
      "transferFrom(address,address,uint256)": {
        "details": "See `IERC20.transferFrom`.     * Emits an `Approval` event indicating the updated allowance. This is not required by the EIP. See the note at the beginning of `ERC20`;     * Requirements: - `sender` and `recipient` cannot be the zero address. - `sender` must have a balance of at least `value`. - the caller must have allowance for `sender`'s tokens of at least `amount`."
      },
      "transferOwnership(address)": {
        "details": "Transfers ownership of the contract to a new account (`newOwner`). Can only be called by the current owner."
      },
      "updateBeneficiary(address)": {
        "details": "This function will fail if called by a non-owner address",
        "params": {
          "_newBeneficiary": "The address that will become the new beneficiary"
        }
      },
      "withdraw(uint256)": {
        "details": "This will fail if msg.sender doesn't have at least _amount pool share tokens",
        "params": {
          "_amount": "The amount of deposit tokens to withdraw"
        }
      },
      "withdrawInterest(address,uint256)": {
        "details": "This function will fail if called by a non-beneficiary or if _amount is higher than the excess deposit tokens",
        "params": {
          "_amount": "The amount of deposit tokens to send to the `_to` address",
          "_to": "The address that the deposit tokens will be sent to"
        }
      }
    },
    "title": "CompoundPool"
  },
  "userdoc": {
    "methods": {
      "constructor": "Constructor",
      "deposit(uint256)": {
        "notice": "Called by someone wishing to deposit to the bank. This amount, plus previous user's balance, will always be withdrawable"
      },
      "donate(uint256)": {
        "notice": "Called by someone wishing to donate to the bank. This amount will *not* be added to users balance, and will be usable by the beneficiary."
      },
      "excessDepositTokens()": {
        "notice": "Returns the amount of deposit tokens that are usable by the beneficiary. Basically, interestEarned+donations"
      },
      "updateBeneficiary(address)": {
        "notice": "Called by the `owner` to set a new beneficiary"
      },
      "withdraw(uint256)": {
        "notice": "Called by someone wishing to withdraw from the bank"
      },
      "withdrawInterest(address,uint256)": {
        "notice": "The beneficiary calls this function to withdraw excess deposit tokens"
      }
    },
    "notice": "Based on Zefram Lou's implementation https://github.com/ZeframLou/pooled-cdai"
  }
}